:100000000C944C000C9485010C9485010C94850192
:100010000C9485010C9485010C9485010C94850148
:100020000C9485010C9485010C9485010C94850138
:100030000C9485010C9485010C9485010C94850128
:100040000C9485010C9485010C9485010C94850118
:100050000C9485010C9485010C9485010C94850108
:100060000C9485010C9485010C9485010C948501F8
:100070000C9485010C9485010C9485010C948501E8
:100080000C9485010C9485010C94850101000105F7
:10009000800105011600031811241FBECFEFD0E127
:1000A000DEBFCDBFECE8F0E040E019C0B791A7910A
:1000B00037912791079107FD0EC097918791EF0126
:1000C000F92FE82F0BBF07900D92A217B307D9F7AE
:1000D000FE011BBE04C01D92A217B307E1F7E83969
:1000E000F40721F70E9461010C947201F894FFCF8C
:1000F0004F925F926F927F928F929F92AF92BF9238
:10010000CF92DF92EF92FF920F931F93CF93DF93E3
:100110006B017C010F2EFAE04F2E512C612C712CBB
:10012000F02DA30192010E94F9004B015C01CA016C
:10013000B901A30192010E94F900EB01C701B601C8
:1001400024E630E040E050E00E94F900CA01B90125
:10015000A30192010E94F9008B01C701B60128EEAC
:1001600033E040E050E00E94F90088EEC81683E0DA
:10017000D806E104F10410F420E130E084E6C8166A
:10018000D104E104F10410F400E110E08AE0C816A3
:10019000D104E104F10410F4C0E1D0E0F901EB5F17
:1001A000FE4F8081E0E0F1E08083D801AB5FBE4F7D
:1001B0008C918183CB5FDE4F88818283D401AB5FDA
:1001C000BE4F8C918383CF010E941B0180E091E0A0
:1001D000DF91CF911F910F91FF90EF90DF90CF9023
:1001E000BF90AF909F908F907F906F905F904F9057
:0201F000089570
:1001F200A1E21A2EAA1BBB1BFD010DC0AA1FBB1F29
:10020200EE1FFF1FA217B307E407F50720F0A21B9A
:10021200B30BE40BF50B661F771F881F991F1A9407
:1002220069F760957095809590959B01AC01BD0131
:04023200CF0108955B
:100236000F931F93CF93DF938C01C0E0D0E00CC0E7
:10024600F801EC0FFD1FBE010D2E000C880B990B5B
:1002560040810E9437012196C430D1058CF3DF918D
:08026600CF911F910F91089543
:10026E0085B38F6085BB25B381E090E002C0880F17
:10027E00991F6A95E2F78095822385BB42BB8FE179
:0C028E009EE40197F1F700C00000089505
:10029A0097B1906497B996B1976096B996B19068FC
:1002AA0096B996B1906296B997B1907E892B87B923
:0802BA0086B1806486B9089545
:1002C2008FEF87BB81BB8FE084BB80E00E944D0132
:1002D2000E947D01BC01990F880B990B0E94780046
:0202E200F7CF54
:1002E400EC010E948A010E948901CE010E948B01C7
:0602F400CE010E9487010B
:1002FA00349BFECF86B1806186B984B195B10895E9
:04030A000C9400004F
:04030E000E947600D3
:0203120008954C
:0203140008954A
:02031600089548
:100318003F065B4F666D7D277F67777C585E7971F6
:0103280000D4
:00000001FF
