:1000000045C0000060C000005EC000005CC0000091
:100010005AC00000DBC0000019C100005FC1000031
:1000200052C0000050C000004EC000004CC0000094
:100030004AC0000048C0000003C5000044C00000E2
:1000400042C0000040C000003EC000003CC00000B4
:100050003AC0000038C0000036C0000034C00000C4
:1000600032C0000030C000002EC000002CC00000D4
:100070002AC0000028C0000026C0000024C00000E4
:1000800022C0000020C000001EC0000011241FBEBE
:10009000CFEFD0E1DEBFCDBF11E0A0E0B1E0EEE9EF
:1000A000FAE000E00BBF02C007900D92A631B10745
:1000B000D9F721E0A6E1B1E001C01D92A135B20758
:1000C000E1F7CED3EAC49CCFE0910201F0910301A5
:1000D00020812F602083E0910201F091030123E051
:1000E00030E0261B370B81E090E002C0880F991F9B
:1000F0002A95E2F78095908189238083E09104011D
:10010000F091050140838FE19EE40197F1F700C073
:10011000000008950F931F93CF93DF938C01C0E0ED
:10012000D0E00BC0F801EC0FFD1FBE010D2E000C3E
:10013000880B990B4081C8DF2196C430D10594F318
:10014000DF91CF911F910F9108950F931F93CF933C
:10015000DF93EB01CF70DD278B019C01689413F8CE
:1001600036952795179507951694D1F7D801AF7056
:10017000BB27072F182F292F3327F801EF70FF27F0
:10018000AB01BC01032E3CE07695679557954795EA
:100190003A95D1F7302DCA5FDE4F2881CCE4D1E00B
:1001A0002883AA5FBE4F2C912983EA5FFE4F2081EE
:1001B0002A83FA01EA5FFE4F80818B83CE01AADF9A
:1001C000CE01DF91CF911F910F9108951F920F9251
:1001D0000FB60F9211248F939F9380912A019091D3
:1001E0002B01892B19F580914201909143010196D1
:1001F000909343018093420187E090E0909339010E
:100200008093380188E090E0909337018093360125
:1002100010920101109200018091420190914301DE
:10022000039724F01092430110924201809134010F
:1002300090913501019690933501809334019F91FF
:100240008F910F900FBE0F901F9018951F920F92D5
:100250000FB60F9211242F933F938F939F9380910A
:100260002A0190912B010097A9F42091400130912F
:1002700041012F5F3F4F3093410120934001209176
:100280004001309141012330310524F010924101A9
:1002900010924001019749F480912C0190912D0119
:1002A000019690932D0180932C0188E090E090932B
:1002B00039018093380187E090E090933701809373
:1002C000360110920101109200019F918F913F9190
:1002D0002F910F900FBE0F901F9018951F920F92A5
:1002E0000FB60F9211248F939F9380912A019091C2
:1002F0002B01892B01F510924301109242011092BB
:10030000410110924001109239011092380110926F
:1003100037011092360110920101109200011092E3
:100320003F0110923E0110923A0110923B0110924F
:100330003C0110923D018091300190913101019674
:1003400090933101809330019F918F910F900FBE58
:100350000F901F90189520913401309135018091B4
:10036000320190913301821793073CF501962817CB
:100370003907F9F480913A0190913B01A0913C0139
:10038000B0913D010196A11DB11D80933A0190935A
:100390003B01A0933C01B0933D014097A105B105FD
:1003A00040F010923A0110923B0110923C011092E1
:1003B0003D0130933301209332012091300130917F
:1003C000310180912E0190912F0182179307DCF467
:1003D00001962817390799F480913A0190913B01D1
:1003E000A0913C01B0913D010197A109B109809311
:1003F0003A0190933B01A0933C01B0933D013093AF
:100400002F0120932E0160913A0170913B01809160
:100410003C0190913D0199DE8FE19EE40197F1F757
:1004200000C0000008952091340130913501809181
:100430003201909133018217930744F501962817F2
:10044000390701F580913A0190913B01A0913C015F
:10045000B0913D014096A11DB11D80933A0190934A
:100460003B01A0933C01B0933D01813F9105A10563
:10047000B10540F010923A0110923B0110923C01FC
:1004800010923D01309333012093320120913001CD
:100490003091310180912E0190912F0182179307A5
:1004A000DCF401962817390799F480913A0190916C
:1004B0003B01A0913C01B0913D014097A109B109D8
:1004C00080933A0190933B01A0933C01B0933D018E
:1004D00030932F0120932E0160913A0170913B01DE
:1004E00080913C0190913D0130DE8FE19EE40197C7
:1004F000F1F700C0000008952091340130913501DA
:1005000080913201909133018217930744F501964F
:100510002817390701F580913A0190913B01A0918C
:100520003C01B0913D019F5FAF4FBF4F80933A01B7
:1005300090933B01A0933C01B0933D0181309F40DB
:10054000A105B10540F010923A0110923B011092C2
:100550003C0110923D0130933301209332012091F0
:1005600030013091310180912E0190912F0182173D
:100570009307DCF401962817390799F480913A0122
:1005800090913B01A0913C01B0913D019150A10996
:10059000B10980933A0190933B01A0933C01B09341
:1005A0003D0130932F0120932E0160913A0170910B
:1005B0003B0180913C0190913D01C7DD8FE19EE4BC
:1005C0000197F1F700C000000895209134013091A7
:1005D000350180913201909133018217930744F5E0
:1005E00001962817390701F580913A0190913B0156
:1005F000A0913C01B0913D01905FAF4FBF4F809300
:100600003A0190933B01A0933C01B0933D018130AE
:10061000904FA105B10540F010923A0110923B01B4
:1006200010923C0110923D0130933301209332012E
:10063000209130013091310180912E0190912F0154
:1006400082179307DCF401962817390799F48091F3
:100650003A0190913B01A0913C01B0913D01905134
:10066000A109B10980933A0190933B01A0933C0109
:10067000B0933D0130932F0120932E0160913A01F8
:1006800070913B0180913C0190913D015EDD8FE1D5
:100690009EE40197F1F700C0000008950F931F93A7
:1006A00081E090E090932B0180932A0180912C01AE
:1006B00090912D018230910509F44FC02CF40097E0
:1006C00061F0019751F1C9C08330910509F465C00B
:1006D000049709F481C0C1C078DF80912C0190910A
:1006E0002D01892BC9F380913A0190913B01A09192
:1006F0003C01B0913D018093260190932701A09386
:100700002801B093290110923A0110923B011092F6
:100710003C0110923D01A1C0EFDE80912C0190912F
:100720002D010197C9F380913A0190913B01A0916D
:100730003C01B0913D018093220190932301A0934D
:100740002401B093250110923A0110923B011092BE
:100750003C0110923D0181C066DE80912C01909198
:100760002D010297C9F380913A0190913B01A0912C
:100770003C01B0913D0180931E0190931F01A09315
:100780002001B093210110923A0110923B01109286
:100790003C0110923D0161C0DEDD80912C01909101
:1007A0002D010397C9F380913A0190913B01A091EB
:1007B0003C01B0913D0180931A0190931B01A093DD
:1007C0001C01B0931D0110923A0110923B0110924E
:1007D0003C0110923D0141C010922B0110922A0160
:1007E00040912601509127016091280170912901C3
:1007F0008091220190912301A0912401B0912501C3
:10080000480F591F6A1F7B1F80911E0190911F0185
:10081000A0912001B0912101480F591F6A1F7B1F31
:1008200080911A0190911B01A0911C01B0911D01B2
:100830008A019B01080F191F2A1F3B1FC901B8011C
:10084000009316011093170120931801309319019A
:100850007CDC15E31A95F1F700001F910F910895C4
:1008600091E09ABB1BBA8FEF81BB8FE084BB80E71E
:1008700089BF87B7846087BF9EBD8AE28ABF8FB772
:1008800080688FBF78948091000190910101019759
:1008900009F058C060E070E0CB0157DC25E32A95F1
:1008A000F1F700004FC08091420190914301009701
:1008B00019F0019761F039C010923F0110923E018A
:1008C000ECE4F1E010821182128213822EC080913A
:1008D0003E0190913F01019690933F0180933E012C
:1008E0008436910511F582E090E090934301809366
:1008F000420180E090E016C021E02BBB3FEF41EECB
:1009000024E0315040402040E1F700C000001BBA15
:100910003FEF41EE24E0315040402040E1F700C07D
:10092000000001968A3091053CF360913E01709180
:100930003F01072E000C880B990B07DC35E33A9535
:10094000F1F700008091380190913901079709F47F
:10095000AACF6EC0809140019091410181309105F4
:1009600009F18230910501F1892B09F054C01092F0
:100970003A0110923B0110923C0110923D011092FD
:100980001601109217011092180110921901ECE44F
:10099000F1E0108211821282138210922D011092C6
:1009A0002C0139C07BDE37C0809116019091170170
:1009B000A0911801B09119010197A109B109809383
:1009C000160190931701A0931801B0931901892B78
:1009D0008A2B8B2B01F5109241011092400180E08F
:1009E00090E016C021E02BBB4FEF21EE34E04150E8
:1009F00020403040E1F700C000001BBA4FEF21EE6D
:100A000034E0415020403040E1F700C00000019642
:100A10008A3091053CF36091160170911701809125
:100A200018019091190191DB45E34A95F1F7000017
:100A30008091360190913701079709F48BCF23CF2E
:100A40001F920F920FB60F9211248F939F93AF9323
:100A5000BF938091480190914901A0914A01B091C2
:100A60004B010196A11DB11D80934801909349014E
:100A7000A0934A01B0934B0110924401109245019A
:100A80001092460110924701BF91AF919F918F91B3
:0E0A90000F900FBE0F901F901895F894FFCF97
:100A9E000100350032003F065B4F666D7D277F6794
:060AAE00777C585E7971AF
:00000001FF
