S011000070726F6A65637430332E73726563B9
S113000045C0000060C000005EC000005CC000008D
S11300105AC0000058C0000056C0000054C0000080
S113002052C0000050C000004EC000004CC0000090
S11300304AC0000048C0000046C0000044C00000A0
S113004042C0000040C000003EC000003CC00000B0
S11300503AC0000038C0000036C0000034C00000C0
S113006032C0000030C000002EC000002CC00000D0
S11300702AC0000028C0000026C0000024C00000E0
S113008022C0000020C000001EC0000011241FBEBA
S1130090CFEFD0E1DEBFCDBF11E0A0E0B1E0ECEBEB
S11300A0F2E000E00BBF02C007900D92A231B1074D
S11300B0D9F721E0A2E1B1E001C01D92A731B20756
S11300C0E1F7CAD0F9C09CCF97B1906497B996B1C3
S11300D0976096B996B1906896B996B1906296B9C0
S11300E097B1907E892B87B986B1806486B90895CB
S11300F0349BFECF86B1806186B984B195B10895F1
S113010085B38F6085BB25B381E090E002C0880F82
S1130110991F6A95E2F78095822385BB42BB8FE1E4
S11301209EE40197F1F700C0000008950F931F9318
S1130130CF93DF938C01C0E0D0E00BC0F801EC0F4B
S1130140FD1FBE010D2E000C880B990B4081D8DFDA
S11301502196C430D10594F3DF91CF911F910F9173
S113016008954F925F926F927F928F929F92AF9277
S1130170BF92CF92DF92EF92FF920F931F93CF9390
S1130180DF936B017C010F2EFAE04F2E512C612C72
S1130190712CF02DA30192016DD04B015C01CA01B9
S11301A0B901A301920166D0EB01C701B60124E6AF
S11301B030E040E050E05ED0CA01B901A3019201F1
S11301C059D08B01C701B60128EE33E040E050E07E
S11301D051D088EEC81683E0D806E104F10410F487
S11301E020E130E084E6C816D104E104F10410F4FF
S11301F000E110E08AE0C816D104E104F10410F42F
S1130200C0E1D0E0F901E050FF4F8081E2E1F1E08C
S11302108083D801A050BF4F8C918183C050DF4FA1
S113022088818283D401A050BF4F8C918383CF01F6
S11302307DDF82E191E0DF91CF911F910F91FF90DB
S1130240EF90DF90CF90BF90AF909F908F907F9072
S11302506F905F904F9008958FEF87BB81BB8FE0C5
S113026084BB80E031DF44DFBC01990F880B990B1C
S113027078DFF9CFA1E21A2EAA1BBB1BFD010DC02A
S1130280AA1FBB1FEE1FFF1FA217B307E407F50742
S113029020F0A21BB30BE40BF50B661F771F881F1E
S11302A0991F1A9469F760957095809590959B01B4
S10F02B0AC01BD01CF010895F894FFCF0C
S11302BC3F065B4F666D7D277F67777C585E79714F
S10502CC00002C
S9030000FC
