S016000070726F6A65637430322D696E74722E73726563CB
S113000045C0000060C000005EC000005CC000008D
S11300105AC0000059C0000088C00000B7C00000EA
S113002052C0000050C000004EC000004CC0000090
S11300304AC0000048C0000046C0000044C00000A0
S113004042C0000040C000003EC000003CC00000B0
S11300503AC0000038C0000036C0000034C00000C0
S113006032C0000030C000002EC000002CC00000D0
S11300702AC0000028C0000026C0000024C00000E0
S113008022C0000020C000001EC0000011241FBEBA
S1130090CFEFD0E1DEBFCDBF11E0A0E0B1E0E2E7F9
S11300A0F4E000E00BBF02C007900D92A231B1074B
S11300B0D9F721E0A2E1B1E001C01D92A332B20759
S11300C0E1F721D1D4C19CCF1F920F920FB60F92AA
S11300D011248F939F9380911C0190911D0101968F
S11300E090931D0180931C0187E090E0909315018B
S11300F08093140188E090E090931301809312019F
S1130100109201011092000180911C0190911D0137
S1130110039724F010921D0110921C019F918F915E
S11301200F900FBE0F901F9018951F920F920FB64D
S11301300F9211248F939F9380911A0190911B0128
S1130140019690931B0180931A0188E090E09093AC
S113015015018093140187E090E09093130180933C
S11301601201109201011092000180911A019091E4
S11301701B01039724F010921B0110921A019F9106
S11301808F910F900FBE0F901F9018951F920F9292
S11301900FB60F92112410921D0110921C0110929F
S11301A01B0110921A011092150110921401109261
S11301B01301109212011092010110920001109289
S11301C019011092180110921701109216010F9044
S11301D00FBE0F901F90189525B32F6025BB25B334
S11301E0E3E0F0E0DF01A61BB70B81E090E002C082
S11301F0880F991FAA95E2F78095822385BB42BB9D
S11302008FED9EE20197F1F700C0000008950F936F
S11302101F93CF93DF938C01C0E0D0E00BC0F801B3
S1130220EC0FFD1FBE010D2E000C880B990B4081B5
S1130230D3DF2196C430D10594F3DF91CF911F9180
S11302400F910895CF92DF92EF92FF92FB01EF702E
S1130250FF276B017C01689413F8F694E794D79414
S1130260C7941694D1F7A6014F705527C72ED82EE0
S1130270E92EFF2496012F7033276B017C010B2E8E
S1130280BCE0F694E794D794C794BA95D1F7B02D0F
S1130290EE5FFE4FE081E0931E0160317105810540
S11302A0910530F0FA01EE5FFE4F408140931F014B
S11302B0613041E074078105910530F0F901EE5F8A
S11302C0FE4F208120932001613020E172078105D7
S11302D0910530F0F601EE5FFE4F2081209321015D
S11302E0672B682B692B29F4EEE1F1E0118212826D
S11302F013828EE191E08BDF8EE191E0FF90EF902D
S1130300DF90CF90089581E08ABB1BBA8FEF81BB49
S11303108FE084BB80E789BF8AE28ABF8FB7806899
S11303208FBF78946091180170911901072E000C09
S1130330880B990B87DF81E090E090930101809313
S113034000016091180170911901072E000C880BAF
S1130350990B78DF25E32A95F1F700002AC08091F4
S11303601C0190911D01009719F0019761F014C0D0
S11303701092190110921801EEE1F1E0108211823D
S11303801282138209C0809118019091190101967B
S113039090931901809318016091180170911901CB
S11303A0072E000C880B990B4DDF35E33A95F1F7D6
S11303B000008091140190911501079781F24FC0BC
S11303C080911A0190911B01009719F0019761F037
S11303D039C01092170110921601EEE1F1E010827B
S11303E01182128213822EC08091160190911701FE
S11303F0019690931701809316018436910511F5A7
S113040082E090E090931B0180931A0180E090E0D9
S113041016C021E02BBB4FEF21EE34E041502040C9
S11304203040E1F700C000001BBA4FEF21EE34E08A
S1130430415020403040E1F700C0000001968A306E
S113044091053CF36091160170911701072E000C81
S1130450880B990BF7DE45E34A95F1F7000080918C
S1130460120190911301079709F4AACF64CFF8946D
S1050470FFCFB8
S113047201003F065B4F666D7D277F67777C585E80
S105048279718A
S9030000FC
