:1000000045C0000061C000005EC000005CC0000090
:100010005AC0000058C0000056C0000054C0000084
:1000200052C0000050C000004EC000004CC0000094
:100030004AC0000048C0000046C0000044C00000A4
:1000400042C0000040C000003EC000003CC00000B4
:100050003AC0000038C0000036C0000034C00000C4
:1000600032C0000030C000002EC000002CC00000D4
:100070002AC0000028C0000026C0000024C00000E4
:1000800022C0000020C000001EC0000011241FBEBE
:10009000CFEFD0E1DEBFCDBF11E0A0E0B1E0E6E4FC
:1000A000F1E000E00BBF02C007900D92A030B10755
:1000B000D9F721E0A0E0B1E001C01D92A230B20763
:1000C000E1F73ED03EC09CCF1F920F920FB60F9229
:1000D00011248F939F9380910001909101010196CB
:1000E00081709078992324F401978E6F9F6F019609
:1000F00090930101809300019F918F910F900FBE0B
:100100000F901F90189581E08ABB1BBA12B883B973
:10011000089589B7816089BFEAE6F0E08081816057
:10012000808378940895EFDFF4DF8091000190914F
:100130000101019719F481E08BBBF7CF18BAF5CF15
:06014000F2DFF894FFCF8E
:00000001FF
