:1000000045C0000060C000005EC000005CC0000091
:100010005AC0000058C0000056C0000054C0000084
:1000200052C0000050C000004EC000004CC0000094
:100030004AC0000048C0000046C0000044C00000A4
:1000400042C0000040C000003EC000003CC00000B4
:100050003AC0000038C0000036C0000034C00000C4
:1000600032C0000030C000002EC000002CC00000D4
:100070002AC0000028C0000026C0000024C00000E4
:1000800022C0000020C000001EC0000011241FBEBE
:10009000CFEFD0E1DEBFCDBF11E0A0E0B1E0E4E5FD
:1000A000F2E000E00BBF02C007900D92A031B10753
:1000B000D9F721E0A0E1B1E001C01D92A531B2075E
:1000C000E1F7C5D0C5C09CCF25B32F6025BB25B3B4
:1000D000E3E0F0E0DF01A61BB70B81E090E002C097
:1000E000880F991FAA95E2F78095822385BB42BBB2
:1000F0008FED9EE20197F1F700C0000008950F9385
:100100001F93CF93DF938C01C0E0D0E00BC0F801C8
:10011000EC0FFD1FBE010D2E000C880B990B4081CA
:10012000D3DF2196C430D10594F3DF91CF911F9195
:100130000F910895CF92DF92EF92FF92FB01EF7043
:10014000FF276B017C01689413F8F694E794D79429
:10015000C7941694D1F7A6014F705527C72ED82EF5
:10016000E92EFF2496012F7033276B017C010B2EA3
:10017000BCE0F694E794D794C794BA95D1F7B02D24
:10018000E050FF4FE081E09310016031710581057F
:10019000910530F0FA01E050FF4F4081409311018A
:1001A000613041E074078105910530F0F901E050BC
:1001B000FF4F20812093120161307041810591052C
:1001C00030F0F601E050FF4F80818093130180E111
:1001D00091E0FF90EF90DF90CF9008958FEF81BB7B
:1001E0008FE084BB87B38E7F87BBC0E0D0E0E12C7B
:1001F000F12CB09906C02196C330D10514F0C1E0AE
:10020000D0E0C130D10551F0C230D105C1F0209706
:1002100081F785B385BB80E482BBEBCF87010F5F9D
:100220001F4FB701FF0C880B990B84DF68DF8FE34A
:100230009CE90197F1F700C000007801DACFB7011F
:100240000F2C000C880B990B75DF59DFD2CFC6DF5E
:04025000F894FFCF50
:100254003F065B4F666D7D277F67777C585E7971BB
:00000001FF
